{
  "contractName": "ERC721Enumerable",
  "abi": [
    {
      "anonymous": false,
      "inputs": [
        {
          "indexed": false,
          "internalType": "address",
          "name": "from",
          "type": "address"
        },
        {
          "indexed": false,
          "internalType": "address",
          "name": "to",
          "type": "address"
        },
        {
          "indexed": false,
          "internalType": "uint256",
          "name": "tokenId",
          "type": "uint256"
        }
      ],
      "name": "Transfer",
      "type": "event"
    },
    {
      "inputs": [
        {
          "internalType": "address",
          "name": "_owner",
          "type": "address"
        }
      ],
      "name": "balanceOf",
      "outputs": [
        {
          "internalType": "uint256",
          "name": "",
          "type": "uint256"
        }
      ],
      "stateMutability": "view",
      "type": "function"
    },
    {
      "inputs": [
        {
          "internalType": "uint256",
          "name": "_tokenId",
          "type": "uint256"
        }
      ],
      "name": "ownerOf",
      "outputs": [
        {
          "internalType": "address",
          "name": "",
          "type": "address"
        }
      ],
      "stateMutability": "view",
      "type": "function"
    },
    {
      "inputs": [],
      "name": "totalSupply",
      "outputs": [
        {
          "internalType": "uint256",
          "name": "",
          "type": "uint256"
        }
      ],
      "stateMutability": "view",
      "type": "function"
    },
    {
      "inputs": [
        {
          "internalType": "uint256",
          "name": "index",
          "type": "uint256"
        }
      ],
      "name": "tokenByIndex",
      "outputs": [
        {
          "internalType": "uint256",
          "name": "",
          "type": "uint256"
        }
      ],
      "stateMutability": "view",
      "type": "function"
    },
    {
      "inputs": [
        {
          "internalType": "address",
          "name": "owner",
          "type": "address"
        },
        {
          "internalType": "uint256",
          "name": "index",
          "type": "uint256"
        }
      ],
      "name": "tokenOfOwnerByIndex",
      "outputs": [
        {
          "internalType": "uint256",
          "name": "",
          "type": "uint256"
        }
      ],
      "stateMutability": "view",
      "type": "function"
    }
  ],
  "bytecode": "0x608060405234801561001057600080fd5b50610738806100206000396000f3fe608060405234801561001057600080fd5b50600436106100575760003560e01c806318160ddd1461005c5780632f745c591461007a5780634f6ccce7146100aa5780636352211e146100da57806370a082311461010a575b600080fd5b61006461013a565b60405161007191906103ea565b60405180910390f35b610094600480360381019061008f9190610494565b610147565b6040516100a191906103ea565b60405180910390f35b6100c460048036038101906100bf91906104d4565b6101f7565b6040516100d191906103ea565b60405180910390f35b6100f460048036038101906100ef91906104d4565b610268565b6040516101019190610510565b60405180910390f35b610124600480360381019061011f919061052b565b610319565b60405161013191906103ea565b60405180910390f35b6000600280549050905090565b600061015283610319565b8210610193576040517f08c379a000000000000000000000000000000000000000000000000000000000815260040161018a906105b5565b60405180910390fd5b600460008473ffffffffffffffffffffffffffffffffffffffff1673ffffffffffffffffffffffffffffffffffffffff16815260200190815260200160002082815481106101e4576101e36105d5565b5b9060005260206000200154905092915050565b600061020161013a565b8210610242576040517f08c379a000000000000000000000000000000000000000000000000000000000815260040161023990610650565b60405180910390fd5b60028281548110610256576102556105d5565b5b90600052602060002001549050919050565b60008060008084815260200190815260200160002060009054906101000a900473ffffffffffffffffffffffffffffffffffffffff169050600073ffffffffffffffffffffffffffffffffffffffff168173ffffffffffffffffffffffffffffffffffffffff161415610310576040517f08c379a0000000000000000000000000000000000000000000000000000000008152600401610307906106e2565b60405180910390fd5b80915050919050565b60008073ffffffffffffffffffffffffffffffffffffffff168273ffffffffffffffffffffffffffffffffffffffff16141561038a576040517f08c379a0000000000000000000000000000000000000000000000000000000008152600401610381906106e2565b60405180910390fd5b600160008373ffffffffffffffffffffffffffffffffffffffff1673ffffffffffffffffffffffffffffffffffffffff168152602001908152602001600020549050919050565b6000819050919050565b6103e4816103d1565b82525050565b60006020820190506103ff60008301846103db565b92915050565b600080fd5b600073ffffffffffffffffffffffffffffffffffffffff82169050919050565b60006104358261040a565b9050919050565b6104458161042a565b811461045057600080fd5b50565b6000813590506104628161043c565b92915050565b610471816103d1565b811461047c57600080fd5b50565b60008135905061048e81610468565b92915050565b600080604083850312156104ab576104aa610405565b5b60006104b985828601610453565b92505060206104ca8582860161047f565b9150509250929050565b6000602082840312156104ea576104e9610405565b5b60006104f88482850161047f565b91505092915050565b61050a8161042a565b82525050565b60006020820190506105256000830184610501565b92915050565b60006020828403121561054157610540610405565b5b600061054f84828501610453565b91505092915050565b600082825260208201905092915050565b7f6f776e657220696e646578206973206f7574206f6620626f756e647321000000600082015250565b600061059f601d83610558565b91506105aa82610569565b602082019050919050565b600060208201905081810360008301526105ce81610592565b9050919050565b7f4e487b7100000000000000000000000000000000000000000000000000000000600052603260045260246000fd5b7f676c6f62616c20696e646578206973206f7574206f6620626f756e6473210000600082015250565b600061063a601e83610558565b915061064582610604565b602082019050919050565b600060208201905081810360008301526106698161062d565b9050919050565b7f6f776e657220717565727920666f72206e6f6e2d65786574656e7420746f6b6560008201527f6e73000000000000000000000000000000000000000000000000000000000000602082015250565b60006106cc602283610558565b91506106d782610670565b604082019050919050565b600060208201905081810360008301526106fb816106bf565b905091905056fea2646970667358221220a9848e945ac42d94e1a083963a943172bba5f9f0d88c43e93e4210c5b237bf2864736f6c634300080a0033",
  "immutableReferences": {},
  "source": "// SPDX-License-Identifier: MIT\r\npragma solidity ^0.8.0;\r\n\r\nimport \"./ERC721.sol\";\r\n\r\ncontract ERC721Enumerable is ERC721{\r\n\r\n    uint256[] private _allTokens;\r\n\r\n    mapping(uint256 => uint256) private _allTokensIndex;\r\n    mapping(address => uint256[]) private _ownedTokens;\r\n    mapping(uint256 => uint256) private _ownedTokensIndex;\r\n\r\n    function totalSupply() public view returns (uint256){\r\n        return _allTokens.length;\r\n    }\r\n\r\n    function _mint(address to, uint256 tokenId) internal override(ERC721){\r\n        super._mint(to, tokenId);\r\n        _addTokensToAllTokenEnumeration(tokenId);\r\n    }\r\n\r\n    function _addTokensToAllTokenEnumeration(uint256 tokenId) private{\r\n        _allTokensIndex[tokenId] = _allTokens.length;\r\n        _allTokens.push(tokenId);\r\n    }\r\n\r\n    function _addTokensToOwnerEnumeration(address to, uint256 tokenId) private{\r\n        _ownedTokensIndex[tokenId] = _ownedTokens[to].length;\r\n        _ownedTokens[to].push(tokenId);\r\n    }\r\n\r\n    function tokenByIndex(uint256 index) public view returns(uint256) {\r\n        require(index < totalSupply(), \"global index is out of bounds!\");\r\n        return _allTokens[index];\r\n    }\r\n\r\n    function tokenOfOwnerByIndex(address owner, uint256 index) public view returns(uint256){\r\n        require(index < balanceOf(owner),\"owner index is out of bounds!\");\r\n        return _ownedTokens[owner][index];\r\n    }\r\n}",
  "sourcePath": "C:\\Users\\okuda\\udemy-NFT-courses\\nft-marketplace-starter-kit-main\\nft-marketplace-starter-kit-main\\src\\contracts\\ERC721Enumerable.sol",
  "compiler": {
    "name": "solc",
    "version": "0.8.10+commit.fc410830.Emscripten.clang"
  },
  "schemaVersion": "3.4.3",
  "updatedAt": "2021-11-09T16:54:51.487Z",
  "devdoc": {
    "kind": "dev",
    "methods": {},
    "version": 1
  },
  "userdoc": {
    "kind": "user",
    "methods": {},
    "version": 1
  }
}