{
  "contractName": "Kryptobird",
  "abi": [
    {
      "inputs": [],
      "stateMutability": "nonpayable",
      "type": "constructor"
    },
    {
      "anonymous": false,
      "inputs": [
        {
          "indexed": false,
          "internalType": "address",
          "name": "from",
          "type": "address"
        },
        {
          "indexed": false,
          "internalType": "address",
          "name": "to",
          "type": "address"
        },
        {
          "indexed": false,
          "internalType": "uint256",
          "name": "tokenId",
          "type": "uint256"
        }
      ],
      "name": "Transfer",
      "type": "event"
    },
    {
      "inputs": [
        {
          "internalType": "uint256",
          "name": "",
          "type": "uint256"
        }
      ],
      "name": "KryptoBirdz",
      "outputs": [
        {
          "internalType": "string",
          "name": "",
          "type": "string"
        }
      ],
      "stateMutability": "view",
      "type": "function",
      "constant": true
    },
    {
      "inputs": [
        {
          "internalType": "address",
          "name": "_owner",
          "type": "address"
        }
      ],
      "name": "balanceOf",
      "outputs": [
        {
          "internalType": "uint256",
          "name": "",
          "type": "uint256"
        }
      ],
      "stateMutability": "view",
      "type": "function",
      "constant": true
    },
    {
      "inputs": [],
      "name": "name",
      "outputs": [
        {
          "internalType": "string",
          "name": "",
          "type": "string"
        }
      ],
      "stateMutability": "view",
      "type": "function",
      "constant": true
    },
    {
      "inputs": [
        {
          "internalType": "uint256",
          "name": "_tokenId",
          "type": "uint256"
        }
      ],
      "name": "ownerOf",
      "outputs": [
        {
          "internalType": "address",
          "name": "",
          "type": "address"
        }
      ],
      "stateMutability": "view",
      "type": "function",
      "constant": true
    },
    {
      "inputs": [],
      "name": "symbol",
      "outputs": [
        {
          "internalType": "string",
          "name": "",
          "type": "string"
        }
      ],
      "stateMutability": "view",
      "type": "function",
      "constant": true
    },
    {
      "inputs": [
        {
          "internalType": "uint256",
          "name": "index",
          "type": "uint256"
        }
      ],
      "name": "tokenByIndex",
      "outputs": [
        {
          "internalType": "uint256",
          "name": "",
          "type": "uint256"
        }
      ],
      "stateMutability": "view",
      "type": "function",
      "constant": true
    },
    {
      "inputs": [
        {
          "internalType": "address",
          "name": "owner",
          "type": "address"
        },
        {
          "internalType": "uint256",
          "name": "index",
          "type": "uint256"
        }
      ],
      "name": "tokenOfOwnerByIndex",
      "outputs": [
        {
          "internalType": "uint256",
          "name": "",
          "type": "uint256"
        }
      ],
      "stateMutability": "view",
      "type": "function",
      "constant": true
    },
    {
      "inputs": [],
      "name": "totalSupply",
      "outputs": [
        {
          "internalType": "uint256",
          "name": "",
          "type": "uint256"
        }
      ],
      "stateMutability": "view",
      "type": "function",
      "constant": true
    },
    {
      "inputs": [
        {
          "internalType": "string",
          "name": "_KryptoBird",
          "type": "string"
        }
      ],
      "name": "mint",
      "outputs": [],
      "stateMutability": "nonpayable",
      "type": "function"
    }
  ],
  "bytecode": "0x60806040523480156200001157600080fd5b506040518060400160405280600a81526020017f4b727970746f42697264000000000000000000000000000000000000000000008152506040518060400160405280600681526020017f4b424952445a00000000000000000000000000000000000000000000000000008152508181816000908051906020019062000098929190620000bc565b508060019080519060200190620000b1929190620000bc565b5050505050620001d1565b828054620000ca906200019b565b90600052602060002090601f016020900481019282620000ee57600085556200013a565b82601f106200010957805160ff19168380011785556200013a565b828001600101855582156200013a579182015b82811115620001395782518255916020019190600101906200011c565b5b5090506200014991906200014d565b5090565b5b80821115620001685760008160009055506001016200014e565b5090565b7f4e487b7100000000000000000000000000000000000000000000000000000000600052602260045260246000fd5b60006002820490506001821680620001b457607f821691505b60208210811415620001cb57620001ca6200016c565b5b50919050565b61132c80620001e16000396000f3fe608060405234801561001057600080fd5b50600436106100935760003560e01c80636352211e116100665780636352211e1461013457806370a082311461016457806395d89b4114610194578063a3a1ff58146101b2578063d85d3d27146101e257610093565b806306fdde031461009857806318160ddd146100b65780632f745c59146100d45780634f6ccce714610104575b600080fd5b6100a06101fe565b6040516100ad9190610b19565b60405180910390f35b6100be610290565b6040516100cb9190610b54565b60405180910390f35b6100ee60048036038101906100e99190610c0d565b61029d565b6040516100fb9190610b54565b60405180910390f35b61011e60048036038101906101199190610c4d565b61034d565b60405161012b9190610b54565b60405180910390f35b61014e60048036038101906101499190610c4d565b6103be565b60405161015b9190610c89565b60405180910390f35b61017e60048036038101906101799190610ca4565b610470565b60405161018b9190610b54565b60405180910390f35b61019c610528565b6040516101a99190610b19565b60405180910390f35b6101cc60048036038101906101c79190610c4d565b6105ba565b6040516101d99190610b19565b60405180910390f35b6101fc60048036038101906101f79190610e06565b610666565b005b60606000805461020d90610e7e565b80601f016020809104026020016040519081016040528092919081815260200182805461023990610e7e565b80156102865780601f1061025b57610100808354040283529160200191610286565b820191906000526020600020905b81548152906001019060200180831161026957829003601f168201915b5050505050905090565b6000600480549050905090565b60006102a883610470565b82106102e9576040517f08c379a00000000000000000000000000000000000000000000000000000000081526004016102e090610efc565b60405180910390fd5b600660008473ffffffffffffffffffffffffffffffffffffffff1673ffffffffffffffffffffffffffffffffffffffff168152602001908152602001600020828154811061033a57610339610f1c565b5b9060005260206000200154905092915050565b6000610357610290565b8210610398576040517f08c379a000000000000000000000000000000000000000000000000000000000815260040161038f90610f97565b60405180910390fd5b600482815481106103ac576103ab610f1c565b5b90600052602060002001549050919050565b6000806002600084815260200190815260200160002060009054906101000a900473ffffffffffffffffffffffffffffffffffffffff169050600073ffffffffffffffffffffffffffffffffffffffff168173ffffffffffffffffffffffffffffffffffffffff161415610467576040517f08c379a000000000000000000000000000000000000000000000000000000000815260040161045e90611029565b60405180910390fd5b80915050919050565b60008073ffffffffffffffffffffffffffffffffffffffff168273ffffffffffffffffffffffffffffffffffffffff1614156104e1576040517f08c379a00000000000000000000000000000000000000000000000000000000081526004016104d890611029565b60405180910390fd5b600360008373ffffffffffffffffffffffffffffffffffffffff1673ffffffffffffffffffffffffffffffffffffffff168152602001908152602001600020549050919050565b60606001805461053790610e7e565b80601f016020809104026020016040519081016040528092919081815260200182805461056390610e7e565b80156105b05780601f10610585576101008083540402835291602001916105b0565b820191906000526020600020905b81548152906001019060200180831161059357829003601f168201915b5050505050905090565b600881815481106105ca57600080fd5b9060005260206000200160009150905080546105e590610e7e565b80601f016020809104026020016040519081016040528092919081815260200182805461061190610e7e565b801561065e5780601f106106335761010080835404028352916020019161065e565b820191906000526020600020905b81548152906001019060200180831161064157829003601f168201915b505050505081565b6009816040516106769190611085565b908152602001604051809103902060009054906101000a900460ff16156106d2576040517f08c379a00000000000000000000000000000000000000000000000000000000081526004016106c9906110e8565b60405180910390fd5b60088190806001815401808255809150506001900390600052602060002001600090919091909150908051906020019061070d9291906109dd565b50600060016008805490506107229190611137565b905061072e3382610769565b60016009836040516107409190611085565b908152602001604051809103902060006101000a81548160ff0219169083151502179055505050565b6107738282610780565b61077c81610922565b5050565b600073ffffffffffffffffffffffffffffffffffffffff168273ffffffffffffffffffffffffffffffffffffffff1614156107f0576040517f08c379a00000000000000000000000000000000000000000000000000000000081526004016107e7906111dd565b60405180910390fd5b6107f98161096b565b15610839576040517f08c379a000000000000000000000000000000000000000000000000000000000815260040161083090611249565b60405180910390fd5b816002600083815260200190815260200160002060006101000a81548173ffffffffffffffffffffffffffffffffffffffff021916908373ffffffffffffffffffffffffffffffffffffffff1602179055506001600360008473ffffffffffffffffffffffffffffffffffffffff1673ffffffffffffffffffffffffffffffffffffffff16815260200190815260200160002060008282546108db9190611269565b925050819055507fddf252ad1be2c89b69c2b068fc378daa952ba7f163c4a11628f55a4df523b3ef60008383604051610916939291906112bf565b60405180910390a15050565b6004805490506005600083815260200190815260200160002081905550600481908060018154018082558091505060019003906000526020600020016000909190919091505550565b6000806002600084815260200190815260200160002060009054906101000a900473ffffffffffffffffffffffffffffffffffffffff169050600073ffffffffffffffffffffffffffffffffffffffff168173ffffffffffffffffffffffffffffffffffffffff161415915050919050565b8280546109e990610e7e565b90600052602060002090601f016020900481019282610a0b5760008555610a52565b82601f10610a2457805160ff1916838001178555610a52565b82800160010185558215610a52579182015b82811115610a51578251825591602001919060010190610a36565b5b509050610a5f9190610a63565b5090565b5b80821115610a7c576000816000905550600101610a64565b5090565b600081519050919050565b600082825260208201905092915050565b60005b83811015610aba578082015181840152602081019050610a9f565b83811115610ac9576000848401525b50505050565b6000601f19601f8301169050919050565b6000610aeb82610a80565b610af58185610a8b565b9350610b05818560208601610a9c565b610b0e81610acf565b840191505092915050565b60006020820190508181036000830152610b338184610ae0565b905092915050565b6000819050919050565b610b4e81610b3b565b82525050565b6000602082019050610b696000830184610b45565b92915050565b6000604051905090565b600080fd5b600080fd5b600073ffffffffffffffffffffffffffffffffffffffff82169050919050565b6000610bae82610b83565b9050919050565b610bbe81610ba3565b8114610bc957600080fd5b50565b600081359050610bdb81610bb5565b92915050565b610bea81610b3b565b8114610bf557600080fd5b50565b600081359050610c0781610be1565b92915050565b60008060408385031215610c2457610c23610b79565b5b6000610c3285828601610bcc565b9250506020610c4385828601610bf8565b9150509250929050565b600060208284031215610c6357610c62610b79565b5b6000610c7184828501610bf8565b91505092915050565b610c8381610ba3565b82525050565b6000602082019050610c9e6000830184610c7a565b92915050565b600060208284031215610cba57610cb9610b79565b5b6000610cc884828501610bcc565b91505092915050565b600080fd5b600080fd5b7f4e487b7100000000000000000000000000000000000000000000000000000000600052604160045260246000fd5b610d1382610acf565b810181811067ffffffffffffffff82111715610d3257610d31610cdb565b5b80604052505050565b6000610d45610b6f565b9050610d518282610d0a565b919050565b600067ffffffffffffffff821115610d7157610d70610cdb565b5b610d7a82610acf565b9050602081019050919050565b82818337600083830152505050565b6000610da9610da484610d56565b610d3b565b905082815260208101848484011115610dc557610dc4610cd6565b5b610dd0848285610d87565b509392505050565b600082601f830112610ded57610dec610cd1565b5b8135610dfd848260208601610d96565b91505092915050565b600060208284031215610e1c57610e1b610b79565b5b600082013567ffffffffffffffff811115610e3a57610e39610b7e565b5b610e4684828501610dd8565b91505092915050565b7f4e487b7100000000000000000000000000000000000000000000000000000000600052602260045260246000fd5b60006002820490506001821680610e9657607f821691505b60208210811415610eaa57610ea9610e4f565b5b50919050565b7f6f776e657220696e646578206973206f7574206f6620626f756e647321000000600082015250565b6000610ee6601d83610a8b565b9150610ef182610eb0565b602082019050919050565b60006020820190508181036000830152610f1581610ed9565b9050919050565b7f4e487b7100000000000000000000000000000000000000000000000000000000600052603260045260246000fd5b7f676c6f62616c20696e646578206973206f7574206f6620626f756e6473210000600082015250565b6000610f81601e83610a8b565b9150610f8c82610f4b565b602082019050919050565b60006020820190508181036000830152610fb081610f74565b9050919050565b7f6f776e657220717565727920666f72206e6f6e2d65786574656e7420746f6b6560008201527f6e73000000000000000000000000000000000000000000000000000000000000602082015250565b6000611013602283610a8b565b915061101e82610fb7565b604082019050919050565b6000602082019050818103600083015261104281611006565b9050919050565b600081905092915050565b600061105f82610a80565b6110698185611049565b9350611079818560208601610a9c565b80840191505092915050565b60006110918284611054565b915081905092915050565b7f4572726f72202d4b727970746f4269726420616c726561647920657869737473600082015250565b60006110d2602083610a8b565b91506110dd8261109c565b602082019050919050565b60006020820190508181036000830152611101816110c5565b9050919050565b7f4e487b7100000000000000000000000000000000000000000000000000000000600052601160045260246000fd5b600061114282610b3b565b915061114d83610b3b565b9250828210156111605761115f611108565b5b828203905092915050565b7f4552433732313a206d696e74696e6720746f20746865207a65726f206164647260008201527f6573730000000000000000000000000000000000000000000000000000000000602082015250565b60006111c7602383610a8b565b91506111d28261116b565b604082019050919050565b600060208201905081810360008301526111f6816111ba565b9050919050565b7f4552433732313a20746f6b656e20616c7265616479206d696e74656400000000600082015250565b6000611233601c83610a8b565b915061123e826111fd565b602082019050919050565b6000602082019050818103600083015261126281611226565b9050919050565b600061127482610b3b565b915061127f83610b3b565b9250827fffffffffffffffffffffffffffffffffffffffffffffffffffffffffffffffff038211156112b4576112b3611108565b5b828201905092915050565b60006060820190506112d46000830186610c7a565b6112e16020830185610c7a565b6112ee6040830184610b45565b94935050505056fea2646970667358221220163cc4ba90376a32f179a87fbbc7cc48f56bc715da70020a85a4373580782e6764736f6c634300080a0033",
  "immutableReferences": {},
  "source": "// SPDX-License-Identifier: MIT\r\npragma solidity ^0.8.0;\r\n\r\nimport \"./ERC721Connector.sol\";\r\n\r\ncontract Kryptobird is ERC721Connector{\r\n\r\n    //array to store our nfts\r\n    string [] public KryptoBirdz;\r\n\r\n    mapping(string => bool) _KryptobirdzExists;\r\n\r\n    function mint(string memory _KryptoBird) public{\r\n\r\n        require(! _KryptobirdzExists[_KryptoBird],\r\n        \"Error -KryptoBird already exists\");\r\n        //this is deprecated - uint _id = KryptoBirdz.push(_KryotoBird);\r\n        KryptoBirdz.push(_KryptoBird);\r\n        uint _id = KryptoBirdz.length -1;\r\n\r\n        _mint(msg.sender, _id);\r\n\r\n        _KryptobirdzExists[_KryptoBird] = true;\r\n    }\r\n\r\n    constructor() ERC721Connector(\"KryptoBird\", \"KBIRDZ\"){\r\n\r\n    }\r\n\r\n}",
  "sourcePath": "C:\\Users\\okuda\\udemy-NFT-courses\\nft-marketplace-starter-kit-main\\nft-marketplace-starter-kit-main\\src\\contracts\\KryptoBirdz.sol",
  "compiler": {
    "name": "solc",
    "version": "0.8.10+commit.fc410830.Emscripten.clang"
  },
  "schemaVersion": "3.4.3",
  "updatedAt": "2021-11-09T16:54:57.326Z",
  "networkType": "ethereum",
  "devdoc": {
    "kind": "dev",
    "methods": {},
    "version": 1
  },
  "userdoc": {
    "kind": "user",
    "methods": {},
    "version": 1
  }
}