{
  "contractName": "Kryptobird",
  "abi": [
    {
      "inputs": [],
      "stateMutability": "nonpayable",
      "type": "constructor"
    },
    {
      "anonymous": false,
      "inputs": [
        {
          "indexed": false,
          "internalType": "address",
          "name": "from",
          "type": "address"
        },
        {
          "indexed": false,
          "internalType": "address",
          "name": "to",
          "type": "address"
        },
        {
          "indexed": false,
          "internalType": "uint256",
          "name": "tokenId",
          "type": "uint256"
        }
      ],
      "name": "Transfer",
      "type": "event"
    },
    {
      "inputs": [
        {
          "internalType": "uint256",
          "name": "",
          "type": "uint256"
        }
      ],
      "name": "KryptoBirdz",
      "outputs": [
        {
          "internalType": "string",
          "name": "",
          "type": "string"
        }
      ],
      "stateMutability": "view",
      "type": "function",
      "constant": true
    },
    {
      "inputs": [
        {
          "internalType": "address",
          "name": "_owner",
          "type": "address"
        }
      ],
      "name": "balanceOf",
      "outputs": [
        {
          "internalType": "uint256",
          "name": "",
          "type": "uint256"
        }
      ],
      "stateMutability": "view",
      "type": "function",
      "constant": true
    },
    {
      "inputs": [],
      "name": "name",
      "outputs": [
        {
          "internalType": "string",
          "name": "",
          "type": "string"
        }
      ],
      "stateMutability": "view",
      "type": "function",
      "constant": true
    },
    {
      "inputs": [
        {
          "internalType": "uint256",
          "name": "_tokenId",
          "type": "uint256"
        }
      ],
      "name": "ownerOf",
      "outputs": [
        {
          "internalType": "address",
          "name": "",
          "type": "address"
        }
      ],
      "stateMutability": "view",
      "type": "function",
      "constant": true
    },
    {
      "inputs": [],
      "name": "symbol",
      "outputs": [
        {
          "internalType": "string",
          "name": "",
          "type": "string"
        }
      ],
      "stateMutability": "view",
      "type": "function",
      "constant": true
    },
    {
      "inputs": [
        {
          "internalType": "string",
          "name": "_KryptoBird",
          "type": "string"
        }
      ],
      "name": "mint",
      "outputs": [],
      "stateMutability": "nonpayable",
      "type": "function"
    }
  ],
  "bytecode": "0x60806040523480156200001157600080fd5b506040518060400160405280600a81526020017f4b727970746f42697264000000000000000000000000000000000000000000008152506040518060400160405280600681526020017f4b424952445a00000000000000000000000000000000000000000000000000008152508181816000908051906020019062000098929190620000bc565b508060019080519060200190620000b1929190620000bc565b5050505050620001d1565b828054620000ca906200019b565b90600052602060002090601f016020900481019282620000ee57600085556200013a565b82601f106200010957805160ff19168380011785556200013a565b828001600101855582156200013a579182015b82811115620001395782518255916020019190600101906200011c565b5b5090506200014991906200014d565b5090565b5b80821115620001685760008160009055506001016200014e565b5090565b7f4e487b7100000000000000000000000000000000000000000000000000000000600052602260045260246000fd5b60006002820490506001821680620001b457607f821691505b60208210811415620001cb57620001ca6200016c565b5b50919050565b610fa880620001e16000396000f3fe608060405234801561001057600080fd5b50600436106100625760003560e01c806306fdde03146100675780636352211e1461008557806370a08231146100b557806395d89b41146100e5578063a3a1ff5814610103578063d85d3d2714610133575b600080fd5b61006f61014f565b60405161007c91906108dc565b60405180910390f35b61009f600480360381019061009a9190610948565b6101e1565b6040516100ac91906109b6565b60405180910390f35b6100cf60048036038101906100ca91906109fd565b610293565b6040516100dc9190610a39565b60405180910390f35b6100ed61034b565b6040516100fa91906108dc565b60405180910390f35b61011d60048036038101906101189190610948565b6103dd565b60405161012a91906108dc565b60405180910390f35b61014d60048036038101906101489190610b89565b610489565b005b60606000805461015e90610c01565b80601f016020809104026020016040519081016040528092919081815260200182805461018a90610c01565b80156101d75780601f106101ac576101008083540402835291602001916101d7565b820191906000526020600020905b8154815290600101906020018083116101ba57829003601f168201915b5050505050905090565b6000806002600084815260200190815260200160002060009054906101000a900473ffffffffffffffffffffffffffffffffffffffff169050600073ffffffffffffffffffffffffffffffffffffffff168173ffffffffffffffffffffffffffffffffffffffff16141561028a576040517f08c379a000000000000000000000000000000000000000000000000000000000815260040161028190610ca5565b60405180910390fd5b80915050919050565b60008073ffffffffffffffffffffffffffffffffffffffff168273ffffffffffffffffffffffffffffffffffffffff161415610304576040517f08c379a00000000000000000000000000000000000000000000000000000000081526004016102fb90610ca5565b60405180910390fd5b600360008373ffffffffffffffffffffffffffffffffffffffff1673ffffffffffffffffffffffffffffffffffffffff168152602001908152602001600020549050919050565b60606001805461035a90610c01565b80601f016020809104026020016040519081016040528092919081815260200182805461038690610c01565b80156103d35780601f106103a8576101008083540402835291602001916103d3565b820191906000526020600020905b8154815290600101906020018083116103b657829003601f168201915b5050505050905090565b600481815481106103ed57600080fd5b90600052602060002001600091509050805461040890610c01565b80601f016020809104026020016040519081016040528092919081815260200182805461043490610c01565b80156104815780601f1061045657610100808354040283529160200191610481565b820191906000526020600020905b81548152906001019060200180831161046457829003601f168201915b505050505081565b6005816040516104999190610d01565b908152602001604051809103902060009054906101000a900460ff16156104f5576040517f08c379a00000000000000000000000000000000000000000000000000000000081526004016104ec90610d64565b60405180910390fd5b6004819080600181540180825580915050600190039060005260206000200160009091909190915090805190602001906105309291906107a0565b50600060016004805490506105459190610db3565b9050610551338261058c565b60016005836040516105639190610d01565b908152602001604051809103902060006101000a81548160ff0219169083151502179055505050565b600073ffffffffffffffffffffffffffffffffffffffff168273ffffffffffffffffffffffffffffffffffffffff1614156105fc576040517f08c379a00000000000000000000000000000000000000000000000000000000081526004016105f390610e59565b60405180910390fd5b6106058161072e565b15610645576040517f08c379a000000000000000000000000000000000000000000000000000000000815260040161063c90610ec5565b60405180910390fd5b816002600083815260200190815260200160002060006101000a81548173ffffffffffffffffffffffffffffffffffffffff021916908373ffffffffffffffffffffffffffffffffffffffff1602179055506001600360008473ffffffffffffffffffffffffffffffffffffffff1673ffffffffffffffffffffffffffffffffffffffff16815260200190815260200160002060008282546106e79190610ee5565b925050819055507fddf252ad1be2c89b69c2b068fc378daa952ba7f163c4a11628f55a4df523b3ef6000838360405161072293929190610f3b565b60405180910390a15050565b6000806002600084815260200190815260200160002060009054906101000a900473ffffffffffffffffffffffffffffffffffffffff169050600073ffffffffffffffffffffffffffffffffffffffff168173ffffffffffffffffffffffffffffffffffffffff161415915050919050565b8280546107ac90610c01565b90600052602060002090601f0160209004810192826107ce5760008555610815565b82601f106107e757805160ff1916838001178555610815565b82800160010185558215610815579182015b828111156108145782518255916020019190600101906107f9565b5b5090506108229190610826565b5090565b5b8082111561083f576000816000905550600101610827565b5090565b600081519050919050565b600082825260208201905092915050565b60005b8381101561087d578082015181840152602081019050610862565b8381111561088c576000848401525b50505050565b6000601f19601f8301169050919050565b60006108ae82610843565b6108b8818561084e565b93506108c881856020860161085f565b6108d181610892565b840191505092915050565b600060208201905081810360008301526108f681846108a3565b905092915050565b6000604051905090565b600080fd5b600080fd5b6000819050919050565b61092581610912565b811461093057600080fd5b50565b6000813590506109428161091c565b92915050565b60006020828403121561095e5761095d610908565b5b600061096c84828501610933565b91505092915050565b600073ffffffffffffffffffffffffffffffffffffffff82169050919050565b60006109a082610975565b9050919050565b6109b081610995565b82525050565b60006020820190506109cb60008301846109a7565b92915050565b6109da81610995565b81146109e557600080fd5b50565b6000813590506109f7816109d1565b92915050565b600060208284031215610a1357610a12610908565b5b6000610a21848285016109e8565b91505092915050565b610a3381610912565b82525050565b6000602082019050610a4e6000830184610a2a565b92915050565b600080fd5b600080fd5b7f4e487b7100000000000000000000000000000000000000000000000000000000600052604160045260246000fd5b610a9682610892565b810181811067ffffffffffffffff82111715610ab557610ab4610a5e565b5b80604052505050565b6000610ac86108fe565b9050610ad48282610a8d565b919050565b600067ffffffffffffffff821115610af457610af3610a5e565b5b610afd82610892565b9050602081019050919050565b82818337600083830152505050565b6000610b2c610b2784610ad9565b610abe565b905082815260208101848484011115610b4857610b47610a59565b5b610b53848285610b0a565b509392505050565b600082601f830112610b7057610b6f610a54565b5b8135610b80848260208601610b19565b91505092915050565b600060208284031215610b9f57610b9e610908565b5b600082013567ffffffffffffffff811115610bbd57610bbc61090d565b5b610bc984828501610b5b565b91505092915050565b7f4e487b7100000000000000000000000000000000000000000000000000000000600052602260045260246000fd5b60006002820490506001821680610c1957607f821691505b60208210811415610c2d57610c2c610bd2565b5b50919050565b7f6f776e657220717565727920666f72206e6f6e2d65786574656e7420746f6b6560008201527f6e73000000000000000000000000000000000000000000000000000000000000602082015250565b6000610c8f60228361084e565b9150610c9a82610c33565b604082019050919050565b60006020820190508181036000830152610cbe81610c82565b9050919050565b600081905092915050565b6000610cdb82610843565b610ce58185610cc5565b9350610cf581856020860161085f565b80840191505092915050565b6000610d0d8284610cd0565b915081905092915050565b7f4572726f72202d4b727970746f4269726420616c726561647920657869737473600082015250565b6000610d4e60208361084e565b9150610d5982610d18565b602082019050919050565b60006020820190508181036000830152610d7d81610d41565b9050919050565b7f4e487b7100000000000000000000000000000000000000000000000000000000600052601160045260246000fd5b6000610dbe82610912565b9150610dc983610912565b925082821015610ddc57610ddb610d84565b5b828203905092915050565b7f4552433732313a206d696e74696e6720746f20746865207a65726f206164647260008201527f6573730000000000000000000000000000000000000000000000000000000000602082015250565b6000610e4360238361084e565b9150610e4e82610de7565b604082019050919050565b60006020820190508181036000830152610e7281610e36565b9050919050565b7f4552433732313a20746f6b656e20616c7265616479206d696e74656400000000600082015250565b6000610eaf601c8361084e565b9150610eba82610e79565b602082019050919050565b60006020820190508181036000830152610ede81610ea2565b9050919050565b6000610ef082610912565b9150610efb83610912565b9250827fffffffffffffffffffffffffffffffffffffffffffffffffffffffffffffffff03821115610f3057610f2f610d84565b5b828201905092915050565b6000606082019050610f5060008301866109a7565b610f5d60208301856109a7565b610f6a6040830184610a2a565b94935050505056fea26469706673582212200698aebe45bd5b01de61c0c9b5ca1e9af5f67ee9132638d520bff5d5d0bdb00464736f6c63430008090033",
  "immutableReferences": {},
  "source": "// SPDX-License-Identifier: MIT\r\npragma solidity ^0.8.0;\r\n\r\nimport \"./ERC721Connector.sol\";\r\n\r\ncontract Kryptobird is ERC721Connector{\r\n\r\n    //array to store our nfts\r\n    string [] public KryptoBirdz;\r\n\r\n    mapping(string => bool) _KryptobirdzExists;\r\n\r\n    function mint(string memory _KryptoBird) public{\r\n\r\n        require(! _KryptobirdzExists[_KryptoBird],\r\n        \"Error -KryptoBird already exists\");\r\n        //this is deprecated - uint _id = KryptoBirdz.push(_KryotoBird);\r\n        KryptoBirdz.push(_KryptoBird);\r\n        uint _id = KryptoBirdz.length -1;\r\n\r\n        _mint(msg.sender, _id);\r\n\r\n        _KryptobirdzExists[_KryptoBird] = true;\r\n    }\r\n\r\n    constructor() ERC721Connector(\"KryptoBird\", \"KBIRDZ\"){\r\n\r\n    }\r\n\r\n}",
  "sourcePath": "C:\\Users\\okuda\\udemy-NFT-courses\\nft-marketplace-starter-kit-main\\nft-marketplace-starter-kit-main\\src\\contracts\\KryptoBirdz.sol",
  "compiler": {
    "name": "solc",
    "version": "0.8.9+commit.e5eed63a.Emscripten.clang"
  },
  "schemaVersion": "3.4.3",
  "updatedAt": "2021-11-09T05:55:30.685Z",
  "networkType": "ethereum",
  "devdoc": {
    "kind": "dev",
    "methods": {},
    "version": 1
  },
  "userdoc": {
    "kind": "user",
    "methods": {},
    "version": 1
  }
}